{
  "contractName": "Musicians",
  "abi": [
    {
      "constant": true,
      "inputs": [
        {
          "internalType": "string",
          "name": "",
          "type": "string"
        },
        {
          "internalType": "string",
          "name": "",
          "type": "string"
        }
      ],
      "name": "album_exists",
      "outputs": [
        {
          "internalType": "bool",
          "name": "",
          "type": "bool"
        }
      ],
      "payable": false,
      "stateMutability": "view",
      "type": "function"
    },
    {
      "constant": true,
      "inputs": [
        {
          "internalType": "uint256",
          "name": "",
          "type": "uint256"
        }
      ],
      "name": "all_publickeys",
      "outputs": [
        {
          "internalType": "string",
          "name": "",
          "type": "string"
        }
      ],
      "payable": false,
      "stateMutability": "view",
      "type": "function"
    },
    {
      "constant": true,
      "inputs": [
        {
          "internalType": "string",
          "name": "",
          "type": "string"
        },
        {
          "internalType": "string",
          "name": "",
          "type": "string"
        }
      ],
      "name": "musician",
      "outputs": [
        {
          "internalType": "string",
          "name": "title",
          "type": "string"
        },
        {
          "internalType": "string",
          "name": "album_name",
          "type": "string"
        },
        {
          "internalType": "uint256",
          "name": "year",
          "type": "uint256"
        }
      ],
      "payable": false,
      "stateMutability": "view",
      "type": "function"
    },
    {
      "constant": true,
      "inputs": [
        {
          "internalType": "string",
          "name": "",
          "type": "string"
        }
      ],
      "name": "musician_exists",
      "outputs": [
        {
          "internalType": "bool",
          "name": "",
          "type": "bool"
        }
      ],
      "payable": false,
      "stateMutability": "view",
      "type": "function"
    },
    {
      "constant": true,
      "inputs": [
        {
          "internalType": "string",
          "name": "",
          "type": "string"
        },
        {
          "internalType": "uint256",
          "name": "",
          "type": "uint256"
        }
      ],
      "name": "musicians_allipfs",
      "outputs": [
        {
          "internalType": "string",
          "name": "",
          "type": "string"
        }
      ],
      "payable": false,
      "stateMutability": "view",
      "type": "function"
    },
    {
      "constant": true,
      "inputs": [
        {
          "internalType": "string",
          "name": "",
          "type": "string"
        }
      ],
      "name": "musicians_allipfs_length",
      "outputs": [
        {
          "internalType": "uint256",
          "name": "",
          "type": "uint256"
        }
      ],
      "payable": false,
      "stateMutability": "view",
      "type": "function"
    },
    {
      "constant": true,
      "inputs": [],
      "name": "num_musicians",
      "outputs": [
        {
          "internalType": "int256",
          "name": "",
          "type": "int256"
        }
      ],
      "payable": false,
      "stateMutability": "view",
      "type": "function"
    },
    {
      "constant": true,
      "inputs": [
        {
          "internalType": "string",
          "name": "",
          "type": "string"
        },
        {
          "internalType": "string",
          "name": "",
          "type": "string"
        },
        {
          "internalType": "uint256",
          "name": "",
          "type": "uint256"
        }
      ],
      "name": "payments",
      "outputs": [
        {
          "internalType": "uint256",
          "name": "",
          "type": "uint256"
        }
      ],
      "payable": false,
      "stateMutability": "view",
      "type": "function"
    },
    {
      "constant": true,
      "inputs": [
        {
          "internalType": "string",
          "name": "",
          "type": "string"
        },
        {
          "internalType": "string",
          "name": "",
          "type": "string"
        }
      ],
      "name": "payments_length",
      "outputs": [
        {
          "internalType": "uint256",
          "name": "",
          "type": "uint256"
        }
      ],
      "payable": false,
      "stateMutability": "view",
      "type": "function"
    },
    {
      "constant": true,
      "inputs": [
        {
          "internalType": "string",
          "name": "",
          "type": "string"
        },
        {
          "internalType": "string",
          "name": "",
          "type": "string"
        },
        {
          "internalType": "uint256",
          "name": "",
          "type": "uint256"
        }
      ],
      "name": "recepients",
      "outputs": [
        {
          "internalType": "string",
          "name": "",
          "type": "string"
        }
      ],
      "payable": false,
      "stateMutability": "view",
      "type": "function"
    },
    {
      "constant": true,
      "inputs": [
        {
          "internalType": "string",
          "name": "",
          "type": "string"
        },
        {
          "internalType": "string",
          "name": "",
          "type": "string"
        }
      ],
      "name": "recepients_length",
      "outputs": [
        {
          "internalType": "uint256",
          "name": "",
          "type": "uint256"
        }
      ],
      "payable": false,
      "stateMutability": "view",
      "type": "function"
    },
    {
      "constant": false,
      "inputs": [
        {
          "internalType": "string",
          "name": "_publickey",
          "type": "string"
        },
        {
          "internalType": "string",
          "name": "_ipfs",
          "type": "string"
        },
        {
          "internalType": "string",
          "name": "_title",
          "type": "string"
        },
        {
          "internalType": "string",
          "name": "_album_name",
          "type": "string"
        },
        {
          "internalType": "uint256",
          "name": "_year",
          "type": "uint256"
        },
        {
          "internalType": "string[]",
          "name": "_recepients",
          "type": "string[]"
        },
        {
          "internalType": "uint256[]",
          "name": "_payments",
          "type": "uint256[]"
        }
      ],
      "name": "addAlbum",
      "outputs": [],
      "payable": false,
      "stateMutability": "nonpayable",
      "type": "function"
    }
  ],
  "bytecode": "0x608060405234801561001057600080fd5b50611818806100206000396000f3fe608060405234801561001057600080fd5b50600436106100b45760003560e01c806392a0084d1161007157806392a0084d146101c5578063a64df3f5146101f7578063b254573c14610227578063c852c22e14610257578063e0a1c83614610287578063eeb1bffd146102b7576100b4565b80630a266be9146100b9578063308a1c2b146100e957806331c4af2d14610119578063479980a114610149578063571797f5146101655780636bf228da14610195575b600080fd5b6100d360048036036100ce91908101906114b5565b6102d5565b6040516100e091906115c2565b60405180910390f35b61010360048036036100fe91908101906113e2565b61038e565b60405161011091906115c2565b60405180910390f35b610133600480360361012e9190810190611376565b61048d565b6040516101409190611629565b60405180910390f35b610163600480360361015e9190810190611248565b6104de565b005b61017f600480360361017a91908101906113e2565b610a21565b60405161018c9190611629565b60405180910390f35b6101af60048036036101aa9190810190611376565b610a88565b6040516101bc919061158c565b60405180910390f35b6101df60048036036101da9190810190611376565b610ae3565b6040516101ee939291906115e4565b60405180910390f35b610211600480360361020c9190810190611376565b610c76565b60405161021e9190611629565b60405180910390f35b610241600480360361023c9190810190611207565b610cc7565b60405161024e919061158c565b60405180910390f35b610271600480360361026c9190810190611461565b610cfd565b60405161027e91906115c2565b60405180910390f35b6102a1600480360361029c9190810190611207565b610dd9565b6040516102ae9190611629565b60405180910390f35b6102bf610e07565b6040516102cc91906115a7565b60405180910390f35b600481815481106102e257fe5b906000526020600020016000915090508054600181600116156101000203166002900480601f0160208091040260200160405190810160405280929190818152602001828054600181600116156101000203166002900480156103865780601f1061035b57610100808354040283529160200191610386565b820191906000526020600020905b81548152906001019060200180831161036957829003601f168201915b505050505081565b6007838051602081018201805184825260208301602085012081835280955050505050508280516020810182018051848252602083016020850120818352809550505050505081815481106103df57fe5b9060005260206000200160009250925050508054600181600116156101000203166002900480601f0160208091040260200160405190810160405280929190818152602001828054600181600116156101000203166002900480156104855780601f1061045a57610100808354040283529160200191610485565b820191906000526020600020905b81548152906001019060200180831161046857829003601f168201915b505050505081565b600a8280516020810182018051848252602083016020850120818352809550505050505081805160208101820180518482526020830160208501208183528095505050505050600091509150505481565b6002876040516104ee9190611575565b908152602001604051809103902060009054906101000a900460ff1661059657600080815480929190600101919050555060016002886040516105319190611575565b908152602001604051809103902060006101000a81548160ff0219169083151502179055506004879080600181540180825580915050906001820390600052602060002001600090919290919091509080519060200190610593929190610e0d565b50505b6040518060600160405280868152602001858152602001848152506001886040516105c19190611575565b9081526020016040518091039020876040516105dd9190611575565b90815260200160405180910390206000820151816000019080519060200190610607929190610e8d565b506020820151816001019080519060200190610624929190610e8d565b5060408201518160020155905050600060405190808252806020026020018201604052801561066757816020015b60608152602001906001900390816106525790505b506007886040516106789190611575565b9081526020016040518091039020876040516106949190611575565b908152602001604051809103902090805190602001906106b5929190610f0d565b5060008090505b825181101561075c576007886040516106d59190611575565b9081526020016040518091039020876040516106f19190611575565b908152602001604051809103902083828151811061070b57fe5b6020026020010151908060018154018082558091505090600182039060005260206000200160009091929091909150908051906020019061074d929190610e0d565b505080806001019150506106bc565b50815160098860405161076f9190611575565b90815260200160405180910390208760405161078b9190611575565b90815260200160405180910390208190555060006040519080825280602002602001820160405280156107cd5781602001602082028038833980820191505090505b506008886040516107de9190611575565b9081526020016040518091039020876040516107fa9190611575565b9081526020016040518091039020908051906020019061081b929190610f6d565b5060008090505b81518110156108af5760088860405161083b9190611575565b9081526020016040518091039020876040516108579190611575565b908152602001604051809103902082828151811061087157fe5b602002602001015190806001815401808255809150509060018203906000526020600020016000909192909190915055508080600101915050610822565b508051600a886040516108c29190611575565b9081526020016040518091039020876040516108de9190611575565b9081526020016040518091039020819055506003876040516109009190611575565b90815260200160405180910390208660405161091c9190611575565b908152602001604051809103902060009054906101000a900460ff166109c55760058760405161094c9190611575565b9081526020016040518091039020869080600181540180825580915050906001820390600052602060002001600090919290919091509080519060200190610995929190610e0d565b505060016006886040516109a99190611575565b9081526020016040518091039020600082825401925050819055505b60016003886040516109d79190611575565b9081526020016040518091039020876040516109f39190611575565b908152602001604051809103902060006101000a81548160ff02191690831515021790555050505050505050565b600883805160208101820180518482526020830160208501208183528095505050505050828051602081018201805184825260208301602085012081835280955050505050508181548110610a7257fe5b9060005260206000200160009250925050505481565b600382805160208101820180518482526020830160208501208183528095505050505050818051602081018201805184825260208301602085012081835280955050505050506000915091509054906101000a900460ff1681565b6001828051602081018201805184825260208301602085012081835280955050505050508180516020810182018051848252602083016020850120818352809550505050505060009150915050806000018054600181600116156101000203166002900480601f016020809104026020016040519081016040528092919081815260200182805460018160011615610100020316600290048015610bc85780601f10610b9d57610100808354040283529160200191610bc8565b820191906000526020600020905b815481529060010190602001808311610bab57829003601f168201915b505050505090806001018054600181600116156101000203166002900480601f016020809104026020016040519081016040528092919081815260200182805460018160011615610100020316600290048015610c665780601f10610c3b57610100808354040283529160200191610c66565b820191906000526020600020905b815481529060010190602001808311610c4957829003601f168201915b5050505050908060020154905083565b60098280516020810182018051848252602083016020850120818352809550505050505081805160208101820180518482526020830160208501208183528095505050505050600091509150505481565b6002818051602081018201805184825260208301602085012081835280955050505050506000915054906101000a900460ff1681565b6005828051602081018201805184825260208301602085012081835280955050505050508181548110610d2c57fe5b90600052602060002001600091509150508054600181600116156101000203166002900480601f016020809104026020016040519081016040528092919081815260200182805460018160011615610100020316600290048015610dd15780601f10610da657610100808354040283529160200191610dd1565b820191906000526020600020905b815481529060010190602001808311610db457829003601f168201915b505050505081565b6006818051602081018201805184825260208301602085012081835280955050505050506000915090505481565b60005481565b828054600181600116156101000203166002900490600052602060002090601f016020900481019282601f10610e4e57805160ff1916838001178555610e7c565b82800160010185558215610e7c579182015b82811115610e7b578251825591602001919060010190610e60565b5b509050610e899190610fba565b5090565b828054600181600116156101000203166002900490600052602060002090601f016020900481019282601f10610ece57805160ff1916838001178555610efc565b82800160010185558215610efc579182015b82811115610efb578251825591602001919060010190610ee0565b5b509050610f099190610fba565b5090565b828054828255906000526020600020908101928215610f5c579160200282015b82811115610f5b578251829080519060200190610f4b929190610e8d565b5091602001919060010190610f2d565b5b509050610f699190610fdf565b5090565b828054828255906000526020600020908101928215610fa9579160200282015b82811115610fa8578251825591602001919060010190610f8d565b5b509050610fb69190610fba565b5090565b610fdc91905b80821115610fd8576000816000905550600101610fc0565b5090565b90565b61100891905b808211156110045760008181610ffb919061100b565b50600101610fe5565b5090565b90565b50805460018160011615610100020316600290046000825580601f106110315750611050565b601f01602090049060005260206000209081019061104f9190610fba565b5b50565b600082601f83011261106457600080fd5b813561107761107282611671565b611644565b9150818183526020840193506020810190508360005b838110156110bd57813586016110a3888261114a565b84526020840193506020830192505060018101905061108d565b5050505092915050565b600082601f8301126110d857600080fd5b81356110eb6110e682611699565b611644565b9150818183526020840193506020810190508385602084028201111561111057600080fd5b60005b83811015611140578161112688826111f2565b845260208401935060208301925050600181019050611113565b5050505092915050565b600082601f83011261115b57600080fd5b813561116e611169826116c1565b611644565b9150808252602083016020830185838301111561118a57600080fd5b61119583828461176b565b50505092915050565b600082601f8301126111af57600080fd5b81356111c26111bd826116ed565b611644565b915080825260208301602083018583830111156111de57600080fd5b6111e983828461176b565b50505092915050565b600081359050611201816117be565b92915050565b60006020828403121561121957600080fd5b600082013567ffffffffffffffff81111561123357600080fd5b61123f8482850161114a565b91505092915050565b600080600080600080600060e0888a03121561126357600080fd5b600088013567ffffffffffffffff81111561127d57600080fd5b6112898a828b0161119e565b975050602088013567ffffffffffffffff8111156112a657600080fd5b6112b28a828b0161119e565b965050604088013567ffffffffffffffff8111156112cf57600080fd5b6112db8a828b0161119e565b955050606088013567ffffffffffffffff8111156112f857600080fd5b6113048a828b0161119e565b94505060806113158a828b016111f2565b93505060a088013567ffffffffffffffff81111561133257600080fd5b61133e8a828b01611053565b92505060c088013567ffffffffffffffff81111561135b57600080fd5b6113678a828b016110c7565b91505092959891949750929550565b6000806040838503121561138957600080fd5b600083013567ffffffffffffffff8111156113a357600080fd5b6113af8582860161114a565b925050602083013567ffffffffffffffff8111156113cc57600080fd5b6113d88582860161114a565b9150509250929050565b6000806000606084860312156113f757600080fd5b600084013567ffffffffffffffff81111561141157600080fd5b61141d8682870161114a565b935050602084013567ffffffffffffffff81111561143a57600080fd5b6114468682870161114a565b9250506040611457868287016111f2565b9150509250925092565b6000806040838503121561147457600080fd5b600083013567ffffffffffffffff81111561148e57600080fd5b61149a8582860161114a565b92505060206114ab858286016111f2565b9150509250929050565b6000602082840312156114c757600080fd5b60006114d5848285016111f2565b91505092915050565b6114e78161174b565b82525050565b6114f681611757565b82525050565b600061150782611724565b6115118185611740565b935061152181856020860161177a565b80840191505092915050565b600061153882611719565b611542818561172f565b935061155281856020860161177a565b61155b816117ad565b840191505092915050565b61156f81611761565b82525050565b600061158182846114fc565b915081905092915050565b60006020820190506115a160008301846114de565b92915050565b60006020820190506115bc60008301846114ed565b92915050565b600060208201905081810360008301526115dc818461152d565b905092915050565b600060608201905081810360008301526115fe818661152d565b90508181036020830152611612818561152d565b90506116216040830184611566565b949350505050565b600060208201905061163e6000830184611566565b92915050565b6000604051905081810181811067ffffffffffffffff8211171561166757600080fd5b8060405250919050565b600067ffffffffffffffff82111561168857600080fd5b602082029050602081019050919050565b600067ffffffffffffffff8211156116b057600080fd5b602082029050602081019050919050565b600067ffffffffffffffff8211156116d857600080fd5b601f19601f8301169050602081019050919050565b600067ffffffffffffffff82111561170457600080fd5b601f19601f8301169050602081019050919050565b600081519050919050565b600081519050919050565b600082825260208201905092915050565b600081905092915050565b60008115159050919050565b6000819050919050565b6000819050919050565b82818337600083830152505050565b60005b8381101561179857808201518184015260208101905061177d565b838111156117a7576000848401525b50505050565b6000601f19601f8301169050919050565b6117c781611761565b81146117d257600080fd5b5056fea365627a7a72315820277236f95ee687656e4a9b07fd71839a3494f2f807f57c60136db65494f1a14f6c6578706572696d656e74616cf564736f6c63430005100040",
  "source": "pragma solidity >=0.5.0;\r\npragma experimental ABIEncoderV2;\r\ncontract Musicians{\r\n    struct Album{\r\n\t\t\tstring title;\r\n\t\t    string album_name;\r\n\t\t\tuint year;\r\n\t}\r\n\tint public num_musicians;\r\n\tmapping(string=>mapping(string=>Album)) public musician;\r\n\tmapping(string=>bool) public musician_exists;\r\n\tmapping(string=>mapping(string=>bool)) public album_exists;\r\n\tstring[] public all_publickeys;\r\n\tmapping(string=>string[]) public musicians_allipfs;\r\n\tmapping(string=>uint) public musicians_allipfs_length;\r\n\tmapping(string=>mapping(string=>string[])) public recepients;\r\n\tmapping(string=>mapping(string=>uint[])) public payments;\r\n\tmapping(string=>mapping(string=>uint)) public recepients_length;\r\n\tmapping(string=>mapping(string=>uint)) public payments_length;\r\n\tfunction addAlbum(string memory _publickey, string memory _ipfs, string memory _title, string memory _album_name,\r\n\t                   uint _year, string[] memory _recepients, uint[] memory _payments) public {\r\n\t    if(!musician_exists[_publickey]){\r\n\t        //musician doesn't exists\r\n\t       num_musicians++;  \r\n\t       musician_exists[_publickey] = true;\r\n\t\t   all_publickeys.push(_publickey);\r\n\t    }\r\n\t    musician[_publickey][_ipfs] = Album(_title,_album_name,_year);\r\n\t\trecepients[_publickey][_ipfs] = new string[](0);\r\n\t\tfor(uint i=0;i<_recepients.length;i++){\r\n\t\t\trecepients[_publickey][_ipfs].push(_recepients[i]);\r\n\t\t}\r\n\t\trecepients_length[_publickey][_ipfs] = _recepients.length;\r\n\t\tpayments[_publickey][_ipfs] = new uint[](0);\r\n\t\tfor(uint i=0;i<_payments.length;i++){\r\n\t\t\tpayments[_publickey][_ipfs].push(_payments[i]);\r\n\t\t}\r\n\t\tpayments_length[_publickey][_ipfs] = _payments.length;\r\n\r\n\t\tif(!album_exists[_publickey][_ipfs]){\r\n\t\t\tmusicians_allipfs[_publickey].push(_ipfs);\r\n\t\t\tmusicians_allipfs_length[_publickey] += 1;  \r\n\t\t}\r\n\t   \talbum_exists[_publickey][_ipfs] = true;\r\n\t    \r\n\t}\r\n\r\n\t    \r\n}    \r\n    \r\n    \r\n",
  "sourcePath": "D:\\Documents\\Music-Copyright\\Music-Copyright-Blockchain\\src\\contracts\\Musician.sol",
  "compiler": {
    "name": "solc",
    "version": "0.5.16+commit.9c3226ce.Emscripten.clang"
  },
  "schemaVersion": "3.4.3",
  "updatedAt": "2021-12-14T07:27:54.675Z",
  "networkType": "ethereum",
  "devdoc": {
    "methods": {}
  },
  "userdoc": {
    "methods": {}
  }
}