{
  "contractName": "Musicians",
  "abi": [
    {
      "constant": true,
      "inputs": [
        {
          "internalType": "string",
          "name": "",
          "type": "string"
        },
        {
          "internalType": "string",
          "name": "",
          "type": "string"
        }
      ],
      "name": "album_exists",
      "outputs": [
        {
          "internalType": "bool",
          "name": "",
          "type": "bool"
        }
      ],
      "payable": false,
      "stateMutability": "view",
      "type": "function"
    },
    {
      "constant": true,
      "inputs": [
        {
          "internalType": "uint256",
          "name": "",
          "type": "uint256"
        }
      ],
      "name": "all_ipfs_hash",
      "outputs": [
        {
          "internalType": "string",
          "name": "",
          "type": "string"
        }
      ],
      "payable": false,
      "stateMutability": "view",
      "type": "function"
    },
    {
      "constant": true,
      "inputs": [
        {
          "internalType": "uint256",
          "name": "",
          "type": "uint256"
        }
      ],
      "name": "all_public_keys",
      "outputs": [
        {
          "internalType": "string",
          "name": "",
          "type": "string"
        }
      ],
      "payable": false,
      "stateMutability": "view",
      "type": "function"
    },
    {
      "constant": true,
      "inputs": [
        {
          "internalType": "string",
          "name": "",
          "type": "string"
        },
        {
          "internalType": "string",
          "name": "",
          "type": "string"
        }
      ],
      "name": "musician",
      "outputs": [
        {
          "internalType": "string",
          "name": "title",
          "type": "string"
        },
        {
          "internalType": "string",
          "name": "album_name",
          "type": "string"
        },
        {
          "internalType": "uint256",
          "name": "year",
          "type": "uint256"
        },
        {
          "internalType": "string",
          "name": "recepients",
          "type": "string"
        },
        {
          "internalType": "uint256",
          "name": "payments",
          "type": "uint256"
        }
      ],
      "payable": false,
      "stateMutability": "view",
      "type": "function"
    },
    {
      "constant": true,
      "inputs": [
        {
          "internalType": "string",
          "name": "",
          "type": "string"
        }
      ],
      "name": "musician_exists",
      "outputs": [
        {
          "internalType": "bool",
          "name": "",
          "type": "bool"
        }
      ],
      "payable": false,
      "stateMutability": "view",
      "type": "function"
    },
    {
      "constant": true,
      "inputs": [],
      "name": "num_musicians",
      "outputs": [
        {
          "internalType": "int256",
          "name": "",
          "type": "int256"
        }
      ],
      "payable": false,
      "stateMutability": "view",
      "type": "function"
    },
    {
      "constant": false,
      "inputs": [
        {
          "internalType": "string",
          "name": "_publickey",
          "type": "string"
        },
        {
          "internalType": "string",
          "name": "_ipfs",
          "type": "string"
        },
        {
          "internalType": "string",
          "name": "_title",
          "type": "string"
        },
        {
          "internalType": "string",
          "name": "_album_name",
          "type": "string"
        },
        {
          "internalType": "uint256",
          "name": "_year",
          "type": "uint256"
        },
        {
          "internalType": "string",
          "name": "_recepients",
          "type": "string"
        },
        {
          "internalType": "uint256",
          "name": "_payments",
          "type": "uint256"
        }
      ],
      "name": "addAlbum",
      "outputs": [],
      "payable": false,
      "stateMutability": "nonpayable",
      "type": "function"
    }
  ],
  "bytecode": "0x608060405234801561001057600080fd5b50611385806100206000396000f3fe608060405234801561001057600080fd5b506004361061007d5760003560e01c806392a0084d1161005b57806392a0084d146105be578063b254573c1461086f578063eb8a705a14610942578063eeb1bffd146109e95761007d565b80632ae1a7bf146100825780636bf228da146103ad5780637d1c48fd14610517575b600080fd5b6103ab600480360360e081101561009857600080fd5b81019080803590602001906401000000008111156100b557600080fd5b8201836020820111156100c757600080fd5b803590602001918460018302840111640100000000831117156100e957600080fd5b91908080601f016020809104026020016040519081016040528093929190818152602001838380828437600081840152601f19601f8201169050808301925050505050505091929192908035906020019064010000000081111561014c57600080fd5b82018360208201111561015e57600080fd5b8035906020019184600183028401116401000000008311171561018057600080fd5b91908080601f016020809104026020016040519081016040528093929190818152602001838380828437600081840152601f19601f820116905080830192505050505050509192919290803590602001906401000000008111156101e357600080fd5b8201836020820111156101f557600080fd5b8035906020019184600183028401116401000000008311171561021757600080fd5b91908080601f016020809104026020016040519081016040528093929190818152602001838380828437600081840152601f19601f8201169050808301925050505050505091929192908035906020019064010000000081111561027a57600080fd5b82018360208201111561028c57600080fd5b803590602001918460018302840111640100000000831117156102ae57600080fd5b91908080601f016020809104026020016040519081016040528093929190818152602001838380828437600081840152601f19601f820116905080830192505050505050509192919290803590602001909291908035906020019064010000000081111561031b57600080fd5b82018360208201111561032d57600080fd5b8035906020019184600183028401116401000000008311171561034f57600080fd5b91908080601f016020809104026020016040519081016040528093929190818152602001838380828437600081840152601f19601f82011690508083019250505050505050919291929080359060200190929190505050610a07565b005b6104fd600480360360408110156103c357600080fd5b81019080803590602001906401000000008111156103e057600080fd5b8201836020820111156103f257600080fd5b8035906020019184600183028401116401000000008311171561041457600080fd5b91908080601f016020809104026020016040519081016040528093929190818152602001838380828437600081840152601f19601f8201169050808301925050505050505091929192908035906020019064010000000081111561047757600080fd5b82018360208201111561048957600080fd5b803590602001918460018302840111640100000000831117156104ab57600080fd5b91908080601f016020809104026020016040519081016040528093929190818152602001838380828437600081840152601f19601f820116905080830192505050505050509192919290505050610deb565b604051808215151515815260200191505060405180910390f35b6105436004803603602081101561052d57600080fd5b8101908080359060200190929190505050610e46565b6040518080602001828103825283818151815260200191508051906020019080838360005b83811015610583578082015181840152602081019050610568565b50505050905090810190601f1680156105b05780820380516001836020036101000a031916815260200191505b509250505060405180910390f35b61070e600480360360408110156105d457600080fd5b81019080803590602001906401000000008111156105f157600080fd5b82018360208201111561060357600080fd5b8035906020019184600183028401116401000000008311171561062557600080fd5b91908080601f016020809104026020016040519081016040528093929190818152602001838380828437600081840152601f19601f8201169050808301925050505050505091929192908035906020019064010000000081111561068857600080fd5b82018360208201111561069a57600080fd5b803590602001918460018302840111640100000000831117156106bc57600080fd5b91908080601f016020809104026020016040519081016040528093929190818152602001838380828437600081840152601f19601f820116905080830192505050505050509192919290505050610eff565b60405180806020018060200186815260200180602001858152602001848103845289818151815260200191508051906020019080838360005b83811015610762578082015181840152602081019050610747565b50505050905090810190601f16801561078f5780820380516001836020036101000a031916815260200191505b50848103835288818151815260200191508051906020019080838360005b838110156107c85780820151818401526020810190506107ad565b50505050905090810190601f1680156107f55780820380516001836020036101000a031916815260200191505b50848103825286818151815260200191508051906020019080838360005b8381101561082e578082015181840152602081019050610813565b50505050905090810190601f16801561085b5780820380516001836020036101000a031916815260200191505b509850505050505050505060405180910390f35b6109286004803603602081101561088557600080fd5b81019080803590602001906401000000008111156108a257600080fd5b8201836020820111156108b457600080fd5b803590602001918460018302840111640100000000831117156108d657600080fd5b91908080601f016020809104026020016040519081016040528093929190818152602001838380828437600081840152601f19601f820116905080830192505050505050509192919290505050611136565b604051808215151515815260200191505060405180910390f35b61096e6004803603602081101561095857600080fd5b810190808035906020019092919050505061116c565b6040518080602001828103825283818151815260200191508051906020019080838360005b838110156109ae578082015181840152602081019050610993565b50505050905090810190601f1680156109db5780820380516001836020036101000a031916815260200191505b509250505060405180910390f35b6109f1611225565b6040518082815260200191505060405180910390f35b6002876040518082805190602001908083835b60208310610a3d5780518252602082019150602081019050602083039250610a1a565b6001836020036101000a038019825116818451168082178552505050505050905001915050908152602001604051809103902060009054906101000a900460ff16610b555760008081548092919060010191905055506004879080600181540180825580915050906001820390600052602060002001600090919290919091509080519060200190610ad092919061122b565b505060016002886040518082805190602001908083835b60208310610b0a5780518252602082019150602081019050602083039250610ae7565b6001836020036101000a038019825116818451168082178552505050505050905001915050908152602001604051809103902060006101000a81548160ff0219169083151502179055505b6005869080600181540180825580915050906001820390600052602060002001600090919290919091509080519060200190610b9292919061122b565b50506040518060a00160405280868152602001858152602001848152602001838152602001828152506001886040518082805190602001908083835b60208310610bf15780518252602082019150602081019050602083039250610bce565b6001836020036101000a0380198251168184511680821785525050505050509050019150509081526020016040518091039020876040518082805190602001908083835b60208310610c585780518252602082019150602081019050602083039250610c35565b6001836020036101000a03801982511681845116808217855250505050505090500191505090815260200160405180910390206000820151816000019080519060200190610ca79291906112ab565b506020820151816001019080519060200190610cc49291906112ab565b50604082015181600201556060820151816003019080519060200190610ceb9291906112ab565b506080820151816004015590505060016003886040518082805190602001908083835b60208310610d315780518252602082019150602081019050602083039250610d0e565b6001836020036101000a0380198251168184511680821785525050505050509050019150509081526020016040518091039020876040518082805190602001908083835b60208310610d985780518252602082019150602081019050602083039250610d75565b6001836020036101000a038019825116818451168082178552505050505050905001915050908152602001604051809103902060006101000a81548160ff02191690831515021790555050505050505050565b600382805160208101820180518482526020830160208501208183528095505050505050818051602081018201805184825260208301602085012081835280955050505050506000915091509054906101000a900460ff1681565b60058181548110610e5357fe5b906000526020600020016000915090508054600181600116156101000203166002900480601f016020809104026020016040519081016040528092919081815260200182805460018160011615610100020316600290048015610ef75780601f10610ecc57610100808354040283529160200191610ef7565b820191906000526020600020905b815481529060010190602001808311610eda57829003601f168201915b505050505081565b6001828051602081018201805184825260208301602085012081835280955050505050508180516020810182018051848252602083016020850120818352809550505050505060009150915050806000018054600181600116156101000203166002900480601f016020809104026020016040519081016040528092919081815260200182805460018160011615610100020316600290048015610fe45780601f10610fb957610100808354040283529160200191610fe4565b820191906000526020600020905b815481529060010190602001808311610fc757829003601f168201915b505050505090806001018054600181600116156101000203166002900480601f0160208091040260200160405190810160405280929190818152602001828054600181600116156101000203166002900480156110825780601f1061105757610100808354040283529160200191611082565b820191906000526020600020905b81548152906001019060200180831161106557829003601f168201915b505050505090806002015490806003018054600181600116156101000203166002900480601f0160208091040260200160405190810160405280929190818152602001828054600181600116156101000203166002900480156111265780601f106110fb57610100808354040283529160200191611126565b820191906000526020600020905b81548152906001019060200180831161110957829003601f168201915b5050505050908060040154905085565b6002818051602081018201805184825260208301602085012081835280955050505050506000915054906101000a900460ff1681565b6004818154811061117957fe5b906000526020600020016000915090508054600181600116156101000203166002900480601f01602080910402602001604051908101604052809291908181526020018280546001816001161561010002031660029004801561121d5780601f106111f25761010080835404028352916020019161121d565b820191906000526020600020905b81548152906001019060200180831161120057829003601f168201915b505050505081565b60005481565b828054600181600116156101000203166002900490600052602060002090601f016020900481019282601f1061126c57805160ff191683800117855561129a565b8280016001018555821561129a579182015b8281111561129957825182559160200191906001019061127e565b5b5090506112a7919061132b565b5090565b828054600181600116156101000203166002900490600052602060002090601f016020900481019282601f106112ec57805160ff191683800117855561131a565b8280016001018555821561131a579182015b828111156113195782518255916020019190600101906112fe565b5b509050611327919061132b565b5090565b61134d91905b80821115611349576000816000905550600101611331565b5090565b9056fea265627a7a723158202e107bd697b0d7813c9e48f7de3d09fdaf475bbbd0e01cda0131360c3f10645a64736f6c63430005100032",
  "source": "pragma solidity >=0.5.0;\n\ncontract Musicians{\n    struct Album{\n\t\t\tstring title;\n\t\t    string album_name;\n\t\t\tuint year;\n\t\t\tstring recepients;\n\t\t\tuint payments;\n\t}\n\tint public num_musicians;\n\tmapping(string=>mapping(string=>Album)) public musician;\n\tmapping(string=>bool) public musician_exists;\n\tmapping(string=>mapping(string=>bool)) public album_exists;\n\tstring[] public all_public_keys;\n\tstring[] public all_ipfs_hash;\n\t// mapping(string=>mapping(string=>address[])) public recepients;\n\t// mapping(string=>mapping(string=>uint[])) public payments;\n\t// mapping(string=>mapping(string=>uint)) public recepients_length;\n\t// mapping(string=>mapping(string=>uint)) public payments_length;\n\tfunction addAlbum(string memory _publickey, string memory _ipfs, string memory _title, string memory _album_name,\n\t                   uint _year, string memory _recepients, uint _payments) public {\n\t    \n\t    if(!musician_exists[_publickey]){\n\t        //musician doesn't exists\n\t       num_musicians++;  \n\t       all_public_keys.push(_publickey);\n\t       musician_exists[_publickey] = true;\n\t    }\n\t    all_ipfs_hash.push(_ipfs);\n\t    musician[_publickey][_ipfs] = Album(_title,_album_name,_year,_recepients,_payments);\n\t\t\n\t    album_exists[_publickey][_ipfs] = true;\n\t    \n\t}\n\t    \n}    \n    \n    \n",
  "sourcePath": "/Users/gavishgupta/Downloads/Music-Copyright-Blockchain/src/contracts/Musician.sol",
  "compiler": {
    "name": "solc",
    "version": "0.5.16+commit.9c3226ce.Emscripten.clang"
  },
  "schemaVersion": "3.4.3",
  "updatedAt": "2021-12-12T14:37:46.012Z",
  "networkType": "ethereum",
  "devdoc": {
    "methods": {}
  },
  "userdoc": {
    "methods": {}
  }
}