{
  "contractName": "Musicians",
  "abi": [
    {
      "constant": true,
      "inputs": [
        {
          "internalType": "string",
          "name": "",
          "type": "string"
        },
        {
          "internalType": "string",
          "name": "",
          "type": "string"
        }
      ],
      "name": "musician",
      "outputs": [
        {
          "internalType": "string",
          "name": "title",
          "type": "string"
        },
        {
          "internalType": "string",
          "name": "album_name",
          "type": "string"
        },
        {
          "internalType": "uint256",
          "name": "year",
          "type": "uint256"
        }
      ],
      "payable": false,
      "stateMutability": "view",
      "type": "function"
    },
    {
      "constant": true,
      "inputs": [
        {
          "internalType": "string",
          "name": "",
          "type": "string"
        }
      ],
      "name": "musician_exists",
      "outputs": [
        {
          "internalType": "bool",
          "name": "",
          "type": "bool"
        }
      ],
      "payable": false,
      "stateMutability": "view",
      "type": "function"
    },
    {
      "constant": true,
      "inputs": [],
      "name": "num_musicians",
      "outputs": [
        {
          "internalType": "int256",
          "name": "",
          "type": "int256"
        }
      ],
      "payable": false,
      "stateMutability": "view",
      "type": "function"
    },
    {
      "constant": true,
      "inputs": [
        {
          "internalType": "string",
          "name": "",
          "type": "string"
        },
        {
          "internalType": "string",
          "name": "",
          "type": "string"
        },
        {
          "internalType": "uint256",
          "name": "",
          "type": "uint256"
        }
      ],
      "name": "payments",
      "outputs": [
        {
          "internalType": "uint256",
          "name": "",
          "type": "uint256"
        }
      ],
      "payable": false,
      "stateMutability": "view",
      "type": "function"
    },
    {
      "constant": true,
      "inputs": [
        {
          "internalType": "string",
          "name": "",
          "type": "string"
        },
        {
          "internalType": "string",
          "name": "",
          "type": "string"
        }
      ],
      "name": "payments_length",
      "outputs": [
        {
          "internalType": "uint256",
          "name": "",
          "type": "uint256"
        }
      ],
      "payable": false,
      "stateMutability": "view",
      "type": "function"
    },
    {
      "constant": true,
      "inputs": [
        {
          "internalType": "string",
          "name": "",
          "type": "string"
        },
        {
          "internalType": "string",
          "name": "",
          "type": "string"
        },
        {
          "internalType": "uint256",
          "name": "",
          "type": "uint256"
        }
      ],
      "name": "recepients",
      "outputs": [
        {
          "internalType": "string",
          "name": "",
          "type": "string"
        }
      ],
      "payable": false,
      "stateMutability": "view",
      "type": "function"
    },
    {
      "constant": true,
      "inputs": [
        {
          "internalType": "string",
          "name": "",
          "type": "string"
        },
        {
          "internalType": "string",
          "name": "",
          "type": "string"
        }
      ],
      "name": "recepients_length",
      "outputs": [
        {
          "internalType": "uint256",
          "name": "",
          "type": "uint256"
        }
      ],
      "payable": false,
      "stateMutability": "view",
      "type": "function"
    },
    {
      "constant": false,
      "inputs": [
        {
          "internalType": "string",
          "name": "_publickey",
          "type": "string"
        },
        {
          "internalType": "string",
          "name": "_ipfs",
          "type": "string"
        },
        {
          "internalType": "string",
          "name": "_title",
          "type": "string"
        },
        {
          "internalType": "string",
          "name": "_album_name",
          "type": "string"
        },
        {
          "internalType": "uint256",
          "name": "_year",
          "type": "uint256"
        },
        {
          "internalType": "string[]",
          "name": "_recepients",
          "type": "string[]"
        },
        {
          "internalType": "uint256[]",
          "name": "_payments",
          "type": "uint256[]"
        }
      ],
      "name": "addAlbum",
      "outputs": [],
      "payable": false,
      "stateMutability": "nonpayable",
      "type": "function"
    }
  ],
  "bytecode": "0x608060405234801561001057600080fd5b5061132a806100206000396000f3fe608060405234801561001057600080fd5b50600436106100885760003560e01c806392a0084d1161005b57806392a0084d14610139578063a64df3f51461016b578063b254573c1461019b578063eeb1bffd146101cb57610088565b8063308a1c2b1461008d57806331c4af2d146100bd578063479980a1146100ed578063571797f514610109575b600080fd5b6100a760048036036100a29190810190610f71565b6101e9565b6040516100b491906110d4565b60405180910390f35b6100d760048036036100d29190810190610f05565b6102e8565b6040516100e4919061113b565b60405180910390f35b61010760048036036101029190810190610dd7565b610339565b005b610123600480360361011e9190810190610f71565b610715565b604051610130919061113b565b60405180910390f35b610153600480360361014e9190810190610f05565b61077c565b604051610162939291906110f6565b60405180910390f35b61018560048036036101809190810190610f05565b61090f565b604051610192919061113b565b60405180910390f35b6101b560048036036101b09190810190610d96565b610960565b6040516101c2919061109e565b60405180910390f35b6101d3610996565b6040516101e091906110b9565b60405180910390f35b60038380516020810182018051848252602083016020850120818352809550505050505082805160208101820180518482526020830160208501208183528095505050505050818154811061023a57fe5b9060005260206000200160009250925050508054600181600116156101000203166002900480601f0160208091040260200160405190810160405280929190818152602001828054600181600116156101000203166002900480156102e05780601f106102b5576101008083540402835291602001916102e0565b820191906000526020600020905b8154815290600101906020018083116102c357829003601f168201915b505050505081565b60068280516020810182018051848252602083016020850120818352809550505050505081805160208101820180518482526020830160208501208183528095505050505050600091509150505481565b6002876040516103499190611087565b908152602001604051809103902060009054906101000a900460ff166103b2576000808154809291906001019190505550600160028860405161038c9190611087565b908152602001604051809103902060006101000a81548160ff0219169083151502179055505b6040518060600160405280868152602001858152602001848152506001886040516103dd9190611087565b9081526020016040518091039020876040516103f99190611087565b9081526020016040518091039020600082015181600001908051906020019061042392919061099c565b50602082015181600101908051906020019061044092919061099c565b5060408201518160020155905050600060405190808252806020026020018201604052801561048357816020015b606081526020019060019003908161046e5790505b506003886040516104949190611087565b9081526020016040518091039020876040516104b09190611087565b908152602001604051809103902090805190602001906104d1929190610a1c565b5060008090505b8251811015610578576003886040516104f19190611087565b90815260200160405180910390208760405161050d9190611087565b908152602001604051809103902083828151811061052757fe5b60200260200101519080600181540180825580915050906001820390600052602060002001600090919290919091509080519060200190610569929190610a7c565b505080806001019150506104d8565b50815160058860405161058b9190611087565b9081526020016040518091039020876040516105a79190611087565b90815260200160405180910390208190555060006040519080825280602002602001820160405280156105e95781602001602082028038833980820191505090505b506004886040516105fa9190611087565b9081526020016040518091039020876040516106169190611087565b90815260200160405180910390209080519060200190610637929190610afc565b5060008090505b81518110156106cb576004886040516106579190611087565b9081526020016040518091039020876040516106739190611087565b908152602001604051809103902082828151811061068d57fe5b60200260200101519080600181540180825580915050906001820390600052602060002001600090919290919091505550808060010191505061063e565b5080516006886040516106de9190611087565b9081526020016040518091039020876040516106fa9190611087565b90815260200160405180910390208190555050505050505050565b60048380516020810182018051848252602083016020850120818352809550505050505082805160208101820180518482526020830160208501208183528095505050505050818154811061076657fe5b9060005260206000200160009250925050505481565b6001828051602081018201805184825260208301602085012081835280955050505050508180516020810182018051848252602083016020850120818352809550505050505060009150915050806000018054600181600116156101000203166002900480601f0160208091040260200160405190810160405280929190818152602001828054600181600116156101000203166002900480156108615780601f1061083657610100808354040283529160200191610861565b820191906000526020600020905b81548152906001019060200180831161084457829003601f168201915b505050505090806001018054600181600116156101000203166002900480601f0160208091040260200160405190810160405280929190818152602001828054600181600116156101000203166002900480156108ff5780601f106108d4576101008083540402835291602001916108ff565b820191906000526020600020905b8154815290600101906020018083116108e257829003601f168201915b5050505050908060020154905083565b60058280516020810182018051848252602083016020850120818352809550505050505081805160208101820180518482526020830160208501208183528095505050505050600091509150505481565b6002818051602081018201805184825260208301602085012081835280955050505050506000915054906101000a900460ff1681565b60005481565b828054600181600116156101000203166002900490600052602060002090601f016020900481019282601f106109dd57805160ff1916838001178555610a0b565b82800160010185558215610a0b579182015b82811115610a0a5782518255916020019190600101906109ef565b5b509050610a189190610b49565b5090565b828054828255906000526020600020908101928215610a6b579160200282015b82811115610a6a578251829080519060200190610a5a92919061099c565b5091602001919060010190610a3c565b5b509050610a789190610b6e565b5090565b828054600181600116156101000203166002900490600052602060002090601f016020900481019282601f10610abd57805160ff1916838001178555610aeb565b82800160010185558215610aeb579182015b82811115610aea578251825591602001919060010190610acf565b5b509050610af89190610b49565b5090565b828054828255906000526020600020908101928215610b38579160200282015b82811115610b37578251825591602001919060010190610b1c565b5b509050610b459190610b49565b5090565b610b6b91905b80821115610b67576000816000905550600101610b4f565b5090565b90565b610b9791905b80821115610b935760008181610b8a9190610b9a565b50600101610b74565b5090565b90565b50805460018160011615610100020316600290046000825580601f10610bc05750610bdf565b601f016020900490600052602060002090810190610bde9190610b49565b5b50565b600082601f830112610bf357600080fd5b8135610c06610c0182611183565b611156565b9150818183526020840193506020810190508360005b83811015610c4c5781358601610c328882610cd9565b845260208401935060208301925050600181019050610c1c565b5050505092915050565b600082601f830112610c6757600080fd5b8135610c7a610c75826111ab565b611156565b91508181835260208401935060208101905083856020840282011115610c9f57600080fd5b60005b83811015610ccf5781610cb58882610d81565b845260208401935060208301925050600181019050610ca2565b5050505092915050565b600082601f830112610cea57600080fd5b8135610cfd610cf8826111d3565b611156565b91508082526020830160208301858383011115610d1957600080fd5b610d2483828461127d565b50505092915050565b600082601f830112610d3e57600080fd5b8135610d51610d4c826111ff565b611156565b91508082526020830160208301858383011115610d6d57600080fd5b610d7883828461127d565b50505092915050565b600081359050610d90816112d0565b92915050565b600060208284031215610da857600080fd5b600082013567ffffffffffffffff811115610dc257600080fd5b610dce84828501610cd9565b91505092915050565b600080600080600080600060e0888a031215610df257600080fd5b600088013567ffffffffffffffff811115610e0c57600080fd5b610e188a828b01610d2d565b975050602088013567ffffffffffffffff811115610e3557600080fd5b610e418a828b01610d2d565b965050604088013567ffffffffffffffff811115610e5e57600080fd5b610e6a8a828b01610d2d565b955050606088013567ffffffffffffffff811115610e8757600080fd5b610e938a828b01610d2d565b9450506080610ea48a828b01610d81565b93505060a088013567ffffffffffffffff811115610ec157600080fd5b610ecd8a828b01610be2565b92505060c088013567ffffffffffffffff811115610eea57600080fd5b610ef68a828b01610c56565b91505092959891949750929550565b60008060408385031215610f1857600080fd5b600083013567ffffffffffffffff811115610f3257600080fd5b610f3e85828601610cd9565b925050602083013567ffffffffffffffff811115610f5b57600080fd5b610f6785828601610cd9565b9150509250929050565b600080600060608486031215610f8657600080fd5b600084013567ffffffffffffffff811115610fa057600080fd5b610fac86828701610cd9565b935050602084013567ffffffffffffffff811115610fc957600080fd5b610fd586828701610cd9565b9250506040610fe686828701610d81565b9150509250925092565b610ff98161125d565b82525050565b61100881611269565b82525050565b600061101982611236565b6110238185611252565b935061103381856020860161128c565b80840191505092915050565b600061104a8261122b565b6110548185611241565b935061106481856020860161128c565b61106d816112bf565b840191505092915050565b61108181611273565b82525050565b6000611093828461100e565b915081905092915050565b60006020820190506110b36000830184610ff0565b92915050565b60006020820190506110ce6000830184610fff565b92915050565b600060208201905081810360008301526110ee818461103f565b905092915050565b60006060820190508181036000830152611110818661103f565b90508181036020830152611124818561103f565b90506111336040830184611078565b949350505050565b60006020820190506111506000830184611078565b92915050565b6000604051905081810181811067ffffffffffffffff8211171561117957600080fd5b8060405250919050565b600067ffffffffffffffff82111561119a57600080fd5b602082029050602081019050919050565b600067ffffffffffffffff8211156111c257600080fd5b602082029050602081019050919050565b600067ffffffffffffffff8211156111ea57600080fd5b601f19601f8301169050602081019050919050565b600067ffffffffffffffff82111561121657600080fd5b601f19601f8301169050602081019050919050565b600081519050919050565b600081519050919050565b600082825260208201905092915050565b600081905092915050565b60008115159050919050565b6000819050919050565b6000819050919050565b82818337600083830152505050565b60005b838110156112aa57808201518184015260208101905061128f565b838111156112b9576000848401525b50505050565b6000601f19601f8301169050919050565b6112d981611273565b81146112e457600080fd5b5056fea365627a7a72315820fd4bbbf9df325f589d948bb52eecad0e7016336ae57b29985ed1308463e1ab9b6c6578706572696d656e74616cf564736f6c63430005100040",
  "source": "pragma solidity >=0.5.0;\r\npragma experimental ABIEncoderV2;\r\ncontract Musicians{\r\n    struct Album{\r\n\t\t\tstring title;\r\n\t\t    string album_name;\r\n\t\t\tuint year;\r\n\t}\r\n\tint public num_musicians;\r\n\tmapping(string=>mapping(string=>Album)) public musician;\r\n\tmapping(string=>bool) public musician_exists;\r\n \r\n \r\n\tmapping(string=>mapping(string=>string[])) public recepients;\r\n\tmapping(string=>mapping(string=>uint[])) public payments;\r\n\tmapping(string=>mapping(string=>uint)) public recepients_length;\r\n\tmapping(string=>mapping(string=>uint)) public payments_length;\r\n\tfunction addAlbum(string memory _publickey, string memory _ipfs, string memory _title, string memory _album_name,\r\n\t                   uint _year, string[] memory _recepients, uint[] memory _payments) public {\r\n \r\n\t    if(!musician_exists[_publickey]){\r\n\t        //musician doesn't exists\r\n\t       num_musicians++;  \r\n\t       musician_exists[_publickey] = true;\r\n\t    }\r\n \r\n\t    musician[_publickey][_ipfs] = Album(_title,_album_name,_year);\r\n\t\trecepients[_publickey][_ipfs] = new string[](0);\r\n\t\tfor(uint i=0;i<_recepients.length;i++){\r\n\t\t\trecepients[_publickey][_ipfs].push(_recepients[i]);\r\n\t\t}\r\n\t\trecepients_length[_publickey][_ipfs] = _recepients.length;\r\n\t\tpayments[_publickey][_ipfs] = new uint[](0);\r\n\t\tfor(uint i=0;i<_payments.length;i++){\r\n \r\n\t\t\tpayments[_publickey][_ipfs].push(_payments[i]);\r\n\t\t}\r\n\t\tpayments_length[_publickey][_ipfs] = _payments.length;\r\n \r\n \r\n\t}\r\n \r\n}",
  "sourcePath": "D:\\Documents\\Music-Copyright\\Music-Copyright-Blockchain\\src\\contracts\\Musician.sol",
  "compiler": {
    "name": "solc",
    "version": "0.5.16+commit.9c3226ce.Emscripten.clang"
  },
  "schemaVersion": "3.4.3",
  "updatedAt": "2021-12-12T18:56:19.302Z",
  "networkType": "ethereum",
  "devdoc": {
    "methods": {}
  },
  "userdoc": {
    "methods": {}
  }
}