{
  "contractName": "TodoList",
  "abi": [
    {
      "inputs": [],
      "payable": false,
      "stateMutability": "nonpayable",
      "type": "constructor"
    },
    {
      "anonymous": false,
      "inputs": [
        {
          "indexed": false,
          "internalType": "uint256",
          "name": "taskCount",
          "type": "uint256"
        },
        {
          "indexed": false,
          "internalType": "string",
          "name": "content",
          "type": "string"
        },
        {
          "indexed": false,
          "internalType": "bool",
          "name": "completed",
          "type": "bool"
        }
      ],
      "name": "TaskCreated",
      "type": "event"
    },
    {
      "anonymous": false,
      "inputs": [
        {
          "indexed": false,
          "internalType": "uint256",
          "name": "id",
          "type": "uint256"
        }
      ],
      "name": "completed",
      "type": "event"
    },
    {
      "constant": true,
      "inputs": [
        {
          "internalType": "uint256",
          "name": "",
          "type": "uint256"
        }
      ],
      "name": "iscompleted",
      "outputs": [
        {
          "internalType": "bool",
          "name": "",
          "type": "bool"
        }
      ],
      "payable": false,
      "stateMutability": "view",
      "type": "function"
    },
    {
      "constant": true,
      "inputs": [],
      "name": "taskCount",
      "outputs": [
        {
          "internalType": "uint256",
          "name": "",
          "type": "uint256"
        }
      ],
      "payable": false,
      "stateMutability": "view",
      "type": "function"
    },
    {
      "constant": true,
      "inputs": [
        {
          "internalType": "uint256",
          "name": "",
          "type": "uint256"
        }
      ],
      "name": "tasks",
      "outputs": [
        {
          "internalType": "uint256",
          "name": "id",
          "type": "uint256"
        },
        {
          "internalType": "string",
          "name": "content",
          "type": "string"
        },
        {
          "internalType": "bool",
          "name": "completed",
          "type": "bool"
        }
      ],
      "payable": false,
      "stateMutability": "view",
      "type": "function"
    },
    {
      "constant": false,
      "inputs": [
        {
          "internalType": "string",
          "name": "_content",
          "type": "string"
        }
      ],
      "name": "createTask",
      "outputs": [],
      "payable": false,
      "stateMutability": "nonpayable",
      "type": "function"
    },
    {
      "constant": false,
      "inputs": [
        {
          "internalType": "uint256",
          "name": "idx",
          "type": "uint256"
        }
      ],
      "name": "makeComplete",
      "outputs": [],
      "payable": false,
      "stateMutability": "nonpayable",
      "type": "function"
    }
  ],
  "bytecode": "0x60806040526000805534801561001457600080fd5b5061003c60405180606001604052806031815260200161098f6031913961004160201b60201c565b610258565b6000808154809291906001019190505550604051806060016040528060005481526020018281526020016000151581525060016000805481526020019081526020016000206000820151816000015560208201518160010190805190602001906100ac9291906101b3565b5060408201518160020160006101000a81548160ff0219169083151502179055509050506001600260008054815260200190815260200160002060006101000a81548160ff0219169083151502179055507f05d0fb833127fc08168556d0e7ca9554fc3f6bc843b3b7d2bf1c35aea6bab660600054826000604051808481526020018060200183151515158152602001828103825284818151815260200191508051906020019080838360005b83811015610174578082015181840152602081019050610159565b50505050905090810190601f1680156101a15780820380516001836020036101000a031916815260200191505b5094505050505060405180910390a150565b828054600181600116156101000203166002900490600052602060002090601f016020900481019282601f106101f457805160ff1916838001178555610222565b82800160010185558215610222579182015b82811115610221578251825591602001919060010190610206565b5b50905061022f9190610233565b5090565b61025591905b80821115610251576000816000905550600101610239565b5090565b90565b610728806102676000396000f3fe608060405234801561001057600080fd5b50600436106100575760003560e01c80630fb0687f1461005c578063111002aa146100a257806346d937df1461015d5780638d9776721461018b578063b6cb58a514610244575b600080fd5b6100886004803603602081101561007257600080fd5b8101908080359060200190929190505050610262565b604051808215151515815260200191505060405180910390f35b61015b600480360360208110156100b857600080fd5b81019080803590602001906401000000008111156100d557600080fd5b8201836020820111156100e757600080fd5b8035906020019184600183028401116401000000008311171561010957600080fd5b91908080601f016020809104026020016040519081016040528093929190818152602001838380828437600081840152601f19601f820116905080830192505050505050509192919290505050610282565b005b6101896004803603602081101561017357600080fd5b81019080803590602001909291905050506103f4565b005b6101b7600480360360208110156101a157600080fd5b8101908080359060200190929190505050610556565b604051808481526020018060200183151515158152602001828103825284818151815260200191508051906020019080838360005b838110156102075780820151818401526020810190506101ec565b50505050905090810190601f1680156102345780820380516001836020036101000a031916815260200191505b5094505050505060405180910390f35b61024c610625565b6040518082815260200191505060405180910390f35b60026020528060005260406000206000915054906101000a900460ff1681565b6000808154809291906001019190505550604051806060016040528060005481526020018281526020016000151581525060016000805481526020019081526020016000206000820151816000015560208201518160010190805190602001906102ed92919061062b565b5060408201518160020160006101000a81548160ff0219169083151502179055509050506001600260008054815260200190815260200160002060006101000a81548160ff0219169083151502179055507f05d0fb833127fc08168556d0e7ca9554fc3f6bc843b3b7d2bf1c35aea6bab660600054826000604051808481526020018060200183151515158152602001828103825284818151815260200191508051906020019080838360005b838110156103b557808201518184015260208101905061039a565b50505050905090810190601f1680156103e25780820380516001836020036101000a031916815260200191505b5094505050505060405180910390a150565b6103fc6106ab565b6001600083815260200190815260200160002060405180606001604052908160008201548152602001600182018054600181600116156101000203166002900480601f0160208091040260200160405190810160405280929190818152602001828054600181600116156101000203166002900480156104bd5780601f10610492576101008083540402835291602001916104bd565b820191906000526020600020905b8154815290600101906020018083116104a057829003601f168201915b505050505081526020016002820160009054906101000a900460ff16151515158152505090506001816040019015159081151581525050806001600084815260200190815260200160002060008201518160000155602082015181600101908051906020019061052e92919061062b565b5060408201518160020160006101000a81548160ff0219169083151502179055509050505050565b6001602052806000526040600020600091509050806000015490806001018054600181600116156101000203166002900480601f0160208091040260200160405190810160405280929190818152602001828054600181600116156101000203166002900480156106085780601f106105dd57610100808354040283529160200191610608565b820191906000526020600020905b8154815290600101906020018083116105eb57829003601f168201915b5050505050908060020160009054906101000a900460ff16905083565b60005481565b828054600181600116156101000203166002900490600052602060002090601f016020900481019282601f1061066c57805160ff191683800117855561069a565b8280016001018555821561069a579182015b8281111561069957825182559160200191906001019061067e565b5b5090506106a791906106ce565b5090565b604051806060016040528060008152602001606081526020016000151581525090565b6106f091905b808211156106ec5760008160009055506001016106d4565b5090565b9056fea265627a7a723158203d82b311bd562cea782ca89da848ea4ce254fc591bc0eae072b4e8eef1c687a464736f6c634300051000325468697320697320746865206669727374207461736b20637265617465642062792074686520636f6e7374727563746f72",
  "source": "pragma solidity ^0.5.0;\n\ncontract TodoList{\n\tuint public taskCount = 0;\n\tstruct Task{\n\t\tuint id;\n\t\tstring content;\n\t\tbool completed;\n\t}\n\tevent TaskCreated(uint taskCount, string content, bool completed);\n\tevent completed(uint id);\n\tmapping(uint=>Task) public tasks;\n\tmapping(uint=>bool) public iscompleted;\n\tconstructor() public{\n\t\tcreateTask(\"This is the first task created by the constructor\");\n\t}\n\tfunction createTask(string memory _content) public{\n\t\ttaskCount++;\n\t\ttasks[taskCount] = Task(taskCount,_content,false);\n\t\tiscompleted[taskCount] = true;\n\t\temit TaskCreated(taskCount,_content,false);\n\t}\n\tfunction makeComplete(uint idx) public{\n\t\t\n\t\tTask memory _task = tasks[idx];\n\t\t_task.completed = true;\n\t\ttasks[idx] = _task;\n\t\t\n\n\t}\n\t\n}",
  "sourcePath": "/Users/gavishgupta/Downloads/Music-Copyright-Blockchain/src/contracts/TodoList.sol",
  "compiler": {
    "name": "solc",
    "version": "0.5.16+commit.9c3226ce.Emscripten.clang"
  },
  "schemaVersion": "3.2.3",
  "updatedAt": "2021-10-29T17:41:55.916Z",
  "networkType": "ethereum",
  "devdoc": {
    "methods": {}
  },
  "userdoc": {
    "methods": {}
  }
}